{
  "contractName": "QAOracle",
  "abi": [
    {
      "constant": true,
      "inputs": [],
      "name": "name",
      "outputs": [
        {
          "name": "",
          "type": "string"
        }
      ],
      "payable": false,
      "stateMutability": "view",
      "type": "function"
    },
    {
      "constant": false,
      "inputs": [
        {
          "name": "_spender",
          "type": "address"
        },
        {
          "name": "_value",
          "type": "uint256"
        }
      ],
      "name": "approve",
      "outputs": [
        {
          "name": "",
          "type": "bool"
        }
      ],
      "payable": false,
      "stateMutability": "nonpayable",
      "type": "function"
    },
    {
      "constant": true,
      "inputs": [],
      "name": "totalSupply",
      "outputs": [
        {
          "name": "",
          "type": "uint256"
        }
      ],
      "payable": false,
      "stateMutability": "view",
      "type": "function"
    },
    {
      "constant": false,
      "inputs": [
        {
          "name": "_from",
          "type": "address"
        },
        {
          "name": "_to",
          "type": "address"
        },
        {
          "name": "_value",
          "type": "uint256"
        }
      ],
      "name": "transferFrom",
      "outputs": [
        {
          "name": "",
          "type": "bool"
        }
      ],
      "payable": false,
      "stateMutability": "nonpayable",
      "type": "function"
    },
    {
      "constant": true,
      "inputs": [],
      "name": "INITIAL_SUPPLY",
      "outputs": [
        {
          "name": "",
          "type": "uint256"
        }
      ],
      "payable": false,
      "stateMutability": "view",
      "type": "function"
    },
    {
      "constant": true,
      "inputs": [],
      "name": "decimals",
      "outputs": [
        {
          "name": "",
          "type": "uint256"
        }
      ],
      "payable": false,
      "stateMutability": "view",
      "type": "function"
    },
    {
      "constant": true,
      "inputs": [
        {
          "name": "",
          "type": "uint256"
        }
      ],
      "name": "questions",
      "outputs": [
        {
          "name": "qAddress",
          "type": "address"
        },
        {
          "name": "qText",
          "type": "string"
        },
        {
          "name": "answer",
          "type": "string"
        },
        {
          "name": "requestedResponder",
          "type": "address"
        }
      ],
      "payable": false,
      "stateMutability": "view",
      "type": "function"
    },
    {
      "constant": false,
      "inputs": [
        {
          "name": "_to",
          "type": "address"
        },
        {
          "name": "amt",
          "type": "uint256"
        }
      ],
      "name": "mint",
      "outputs": [],
      "payable": false,
      "stateMutability": "nonpayable",
      "type": "function"
    },
    {
      "constant": false,
      "inputs": [
        {
          "name": "_spender",
          "type": "address"
        },
        {
          "name": "_subtractedValue",
          "type": "uint256"
        }
      ],
      "name": "decreaseApproval",
      "outputs": [
        {
          "name": "",
          "type": "bool"
        }
      ],
      "payable": false,
      "stateMutability": "nonpayable",
      "type": "function"
    },
    {
      "constant": true,
      "inputs": [
        {
          "name": "_owner",
          "type": "address"
        }
      ],
      "name": "balanceOf",
      "outputs": [
        {
          "name": "",
          "type": "uint256"
        }
      ],
      "payable": false,
      "stateMutability": "view",
      "type": "function"
    },
    {
      "constant": true,
      "inputs": [],
      "name": "owner",
      "outputs": [
        {
          "name": "",
          "type": "address"
        }
      ],
      "payable": false,
      "stateMutability": "view",
      "type": "function"
    },
    {
      "constant": true,
      "inputs": [],
      "name": "symbol",
      "outputs": [
        {
          "name": "",
          "type": "string"
        }
      ],
      "payable": false,
      "stateMutability": "view",
      "type": "function"
    },
    {
      "constant": false,
      "inputs": [
        {
          "name": "_to",
          "type": "address"
        },
        {
          "name": "_value",
          "type": "uint256"
        }
      ],
      "name": "transfer",
      "outputs": [
        {
          "name": "",
          "type": "bool"
        }
      ],
      "payable": false,
      "stateMutability": "nonpayable",
      "type": "function"
    },
    {
      "constant": false,
      "inputs": [
        {
          "name": "_spender",
          "type": "address"
        },
        {
          "name": "_addedValue",
          "type": "uint256"
        }
      ],
      "name": "increaseApproval",
      "outputs": [
        {
          "name": "",
          "type": "bool"
        }
      ],
      "payable": false,
      "stateMutability": "nonpayable",
      "type": "function"
    },
    {
      "constant": true,
      "inputs": [
        {
          "name": "addr",
          "type": "address"
        }
      ],
      "name": "getAcctBalance",
      "outputs": [
        {
          "name": "",
          "type": "string"
        }
      ],
      "payable": false,
      "stateMutability": "view",
      "type": "function"
    },
    {
      "constant": true,
      "inputs": [
        {
          "name": "_owner",
          "type": "address"
        },
        {
          "name": "_spender",
          "type": "address"
        }
      ],
      "name": "allowance",
      "outputs": [
        {
          "name": "",
          "type": "uint256"
        }
      ],
      "payable": false,
      "stateMutability": "view",
      "type": "function"
    },
    {
      "inputs": [],
      "payable": false,
      "stateMutability": "nonpayable",
      "type": "constructor"
    },
    {
      "anonymous": false,
      "inputs": [
        {
          "indexed": false,
          "name": "qId",
          "type": "uint256"
        },
        {
          "indexed": false,
          "name": "askerAddress",
          "type": "address"
        },
        {
          "indexed": false,
          "name": "qText",
          "type": "string"
        },
        {
          "indexed": false,
          "name": "answer",
          "type": "string"
        },
        {
          "indexed": false,
          "name": "requestedResponder",
          "type": "address"
        }
      ],
      "name": "QuestionUpdated",
      "type": "event"
    },
    {
      "anonymous": false,
      "inputs": [
        {
          "indexed": false,
          "name": "to",
          "type": "address"
        },
        {
          "indexed": false,
          "name": "amt",
          "type": "uint256"
        }
      ],
      "name": "TokensUpdated",
      "type": "event"
    },
    {
      "anonymous": false,
      "inputs": [
        {
          "indexed": true,
          "name": "to",
          "type": "address"
        },
        {
          "indexed": false,
          "name": "amount",
          "type": "uint256"
        }
      ],
      "name": "Mint",
      "type": "event"
    },
    {
      "anonymous": false,
      "inputs": [
        {
          "indexed": false,
          "name": "owner",
          "type": "address"
        },
        {
          "indexed": false,
          "name": "spender",
          "type": "address"
        },
        {
          "indexed": false,
          "name": "value",
          "type": "uint256"
        }
      ],
      "name": "Approval",
      "type": "event"
    },
    {
      "anonymous": false,
      "inputs": [
        {
          "indexed": false,
          "name": "from",
          "type": "address"
        },
        {
          "indexed": false,
          "name": "to",
          "type": "address"
        },
        {
          "indexed": false,
          "name": "value",
          "type": "uint256"
        }
      ],
      "name": "Transfer",
      "type": "event"
    },
    {
      "constant": false,
      "inputs": [
        {
          "name": "question",
          "type": "string"
        }
      ],
      "name": "askQuestion",
      "outputs": [],
      "payable": true,
      "stateMutability": "payable",
      "type": "function"
    },
    {
      "constant": false,
      "inputs": [
        {
          "name": "qId",
          "type": "uint256"
        },
        {
          "name": "answer",
          "type": "string"
        }
      ],
      "name": "answerQuestion",
      "outputs": [],
      "payable": false,
      "stateMutability": "nonpayable",
      "type": "function"
    },
    {
      "constant": false,
      "inputs": [
        {
          "name": "qId",
          "type": "uint256"
        },
        {
          "name": "to",
          "type": "address"
        }
      ],
      "name": "assignQuestion",
      "outputs": [],
      "payable": false,
      "stateMutability": "nonpayable",
      "type": "function"
    },
    {
      "constant": true,
      "inputs": [
        {
          "name": "qId",
          "type": "uint256"
        }
      ],
      "name": "getQuestionText",
      "outputs": [
        {
          "name": "",
          "type": "string"
        }
      ],
      "payable": false,
      "stateMutability": "view",
      "type": "function"
    },
    {
      "constant": true,
      "inputs": [
        {
          "name": "qId",
          "type": "uint256"
        }
      ],
      "name": "getQuestionAsker",
      "outputs": [
        {
          "name": "",
          "type": "address"
        }
      ],
      "payable": false,
      "stateMutability": "view",
      "type": "function"
    },
    {
      "constant": true,
      "inputs": [
        {
          "name": "qId",
          "type": "uint256"
        }
      ],
      "name": "getQuestionAnswer",
      "outputs": [
        {
          "name": "",
          "type": "string"
        }
      ],
      "payable": false,
      "stateMutability": "view",
      "type": "function"
    },
    {
      "constant": true,
      "inputs": [
        {
          "name": "qId",
          "type": "uint256"
        }
      ],
      "name": "getQuestion",
      "outputs": [
        {
          "name": "",
          "type": "string"
        },
        {
          "name": "",
          "type": "address"
        },
        {
          "name": "",
          "type": "string"
        },
        {
          "name": "",
          "type": "string"
        },
        {
          "name": "",
          "type": "address"
        }
      ],
      "payable": false,
      "stateMutability": "view",
      "type": "function"
    },
    {
      "constant": true,
      "inputs": [],
      "name": "getQuestionsTotal",
      "outputs": [
        {
          "name": "",
          "type": "string"
        }
      ],
      "payable": false,
      "stateMutability": "view",
      "type": "function"
    }
  ],
  "bytecode": "0x60806040526040805190810160405280600781526020017f5141546f6b656e0000000000000000000000000000000000000000000000000081525060039080519060200190620000519291906200015d565b506040805190810160405280600381526020017f5141540000000000000000000000000000000000000000000000000000000000815250600490805190602001906200009f9291906200015d565b506000600555600554600a0a61271002600655348015620000bf57600080fd5b506006546001819055506006546000803373ffffffffffffffffffffffffffffffffffffffff1673ffffffffffffffffffffffffffffffffffffffff1681526020019081526020016000208190555033600760006101000a81548173ffffffffffffffffffffffffffffffffffffffff021916908373ffffffffffffffffffffffffffffffffffffffff16021790555060006008819055506200020c565b828054600181600116156101000203166002900490600052602060002090601f016020900481019282601f10620001a057805160ff1916838001178555620001d1565b82800160010185558215620001d1579182015b82811115620001d0578251825591602001919060010190620001b3565b5b509050620001e09190620001e4565b5090565b6200020991905b8082111562000205576000816000905550600101620001eb565b5090565b90565b612f88806200021c6000396000f30060806040526004361061013e576000357c0100000000000000000000000000000000000000000000000000000000900463ffffffff16806306fdde0314610143578063095ea7b3146101d357806318160ddd1461023857806322cc7d301461026357806323b872dd146102f35780632ff2e9dc14610378578063313ce567146103a357806331b1b978146103ce57806340c10f1914610546578063447e52a014610593578063602bdec814610606578063661884631461066257806370a08231146106c757806373f801431461071e57806383915ee21461078b5780638da5cb5b1461083157806395d89b4114610888578063a9059cbb14610918578063acf34adc1461097d578063d73dd62314610a23578063d7ff167f14610a88578063db88176f14610b44578063dcc79c3814610d28578063dd62ed3e14610d75575b600080fd5b34801561014f57600080fd5b50610158610dec565b6040518080602001828103825283818151815260200191508051906020019080838360005b8381101561019857808201518184015260208101905061017d565b50505050905090810190601f1680156101c55780820380516001836020036101000a031916815260200191505b509250505060405180910390f35b3480156101df57600080fd5b5061021e600480360381019080803573ffffffffffffffffffffffffffffffffffffffff16906020019092919080359060200190929190505050610e8a565b604051808215151515815260200191505060405180910390f35b34801561024457600080fd5b5061024d610fb6565b6040518082815260200191505060405180910390f35b34801561026f57600080fd5b50610278610fc0565b6040518080602001828103825283818151815260200191508051906020019080838360005b838110156102b857808201518184015260208101905061029d565b50505050905090810190601f1680156102e55780820380516001836020036101000a031916815260200191505b509250505060405180910390f35b3480156102ff57600080fd5b5061035e600480360381019080803573ffffffffffffffffffffffffffffffffffffffff169060200190929190803573ffffffffffffffffffffffffffffffffffffffff16906020019092919080359060200190929190505050610fd2565b604051808215151515815260200191505060405180910390f35b34801561038457600080fd5b5061038d6113c7565b6040518082815260200191505060405180910390f35b3480156103af57600080fd5b506103b86113cd565b6040518082815260200191505060405180910390f35b3480156103da57600080fd5b506103f9600480360381019080803590602001909291905050506113d3565b604051808573ffffffffffffffffffffffffffffffffffffffff1673ffffffffffffffffffffffffffffffffffffffff16815260200180602001806020018473ffffffffffffffffffffffffffffffffffffffff1673ffffffffffffffffffffffffffffffffffffffff168152602001838103835286818151815260200191508051906020019080838360005b838110156104a1578082015181840152602081019050610486565b50505050905090810190601f1680156104ce5780820380516001836020036101000a031916815260200191505b50838103825285818151815260200191508051906020019080838360005b838110156105075780820151818401526020810190506104ec565b50505050905090810190601f1680156105345780820380516001836020036101000a031916815260200191505b50965050505050505060405180910390f35b34801561055257600080fd5b50610591600480360381019080803573ffffffffffffffffffffffffffffffffffffffff16906020019092919080359060200190929190505050611573565b005b34801561059f57600080fd5b5061060460048036038101908080359060200190929190803590602001908201803590602001908080601f01602080910402602001604051908101604052809392919081815260200183838082843782019150505050505091929192905050506116ce565b005b610660600480360381019080803590602001908201803590602001908080601f0160208091040260200160405190810160405280939291908181526020018383808284378201915050505050509192919290505050611946565b005b34801561066e57600080fd5b506106ad600480360381019080803573ffffffffffffffffffffffffffffffffffffffff16906020019092919080359060200190929190505050611d3d565b604051808215151515815260200191505060405180910390f35b3480156106d357600080fd5b50610708600480360381019080803573ffffffffffffffffffffffffffffffffffffffff169060200190929190505050612009565b6040518082815260200191505060405180910390f35b34801561072a57600080fd5b5061074960048036038101908080359060200190929190505050612051565b604051808273ffffffffffffffffffffffffffffffffffffffff1673ffffffffffffffffffffffffffffffffffffffff16815260200191505060405180910390f35b34801561079757600080fd5b506107b660048036038101908080359060200190929190505050612091565b6040518080602001828103825283818151815260200191508051906020019080838360005b838110156107f65780820151818401526020810190506107db565b50505050905090810190601f1680156108235780820380516001836020036101000a031916815260200191505b509250505060405180910390f35b34801561083d57600080fd5b50610846612149565b604051808273ffffffffffffffffffffffffffffffffffffffff1673ffffffffffffffffffffffffffffffffffffffff16815260200191505060405180910390f35b34801561089457600080fd5b5061089d61216f565b6040518080602001828103825283818151815260200191508051906020019080838360005b838110156108dd5780820151818401526020810190506108c2565b50505050905090810190601f16801561090a5780820380516001836020036101000a031916815260200191505b509250505060405180910390f35b34801561092457600080fd5b50610963600480360381019080803573ffffffffffffffffffffffffffffffffffffffff1690602001909291908035906020019092919050505061220d565b604051808215151515815260200191505060405180910390f35b34801561098957600080fd5b506109a860048036038101908080359060200190929190505050612467565b6040518080602001828103825283818151815260200191508051906020019080838360005b838110156109e85780820151818401526020810190506109cd565b50505050905090810190601f168015610a155780820380516001836020036101000a031916815260200191505b509250505060405180910390f35b348015610a2f57600080fd5b50610a6e600480360381019080803573ffffffffffffffffffffffffffffffffffffffff1690602001909291908035906020019092919050505061251f565b604051808215151515815260200191505060405180910390f35b348015610a9457600080fd5b50610ac9600480360381019080803573ffffffffffffffffffffffffffffffffffffffff169060200190929190505050612755565b6040518080602001828103825283818151815260200191508051906020019080838360005b83811015610b09578082015181840152602081019050610aee565b50505050905090810190601f168015610b365780820380516001836020036101000a031916815260200191505b509250505060405180910390f35b348015610b5057600080fd5b50610b6f6004803603810190808035906020019092919050505061276f565b60405180806020018673ffffffffffffffffffffffffffffffffffffffff1673ffffffffffffffffffffffffffffffffffffffff16815260200180602001806020018573ffffffffffffffffffffffffffffffffffffffff1673ffffffffffffffffffffffffffffffffffffffff168152602001848103845289818151815260200191508051906020019080838360005b83811015610c1b578082015181840152602081019050610c00565b50505050905090810190601f168015610c485780820380516001836020036101000a031916815260200191505b50848103835287818151815260200191508051906020019080838360005b83811015610c81578082015181840152602081019050610c66565b50505050905090810190601f168015610cae5780820380516001836020036101000a031916815260200191505b50848103825286818151815260200191508051906020019080838360005b83811015610ce7578082015181840152602081019050610ccc565b50505050905090810190601f168015610d145780820380516001836020036101000a031916815260200191505b509850505050505050505060405180910390f35b348015610d3457600080fd5b50610d7360048036038101908080359060200190929190803573ffffffffffffffffffffffffffffffffffffffff169060200190929190505050612966565b005b348015610d8157600080fd5b50610dd6600480360381019080803573ffffffffffffffffffffffffffffffffffffffff169060200190929190803573ffffffffffffffffffffffffffffffffffffffff169060200190929190505050612c24565b6040518082815260200191505060405180910390f35b60038054600181600116156101000203166002900480601f016020809104026020016040519081016040528092919081815260200182805460018160011615610100020316600290048015610e825780601f10610e5757610100808354040283529160200191610e82565b820191906000526020600020905b815481529060010190602001808311610e6557829003601f168201915b505050505081565b600081600260003373ffffffffffffffffffffffffffffffffffffffff1673ffffffffffffffffffffffffffffffffffffffff16815260200190815260200160002060008573ffffffffffffffffffffffffffffffffffffffff1673ffffffffffffffffffffffffffffffffffffffff168152602001908152602001600020819055507f8c5be1e5ebec7d5bd14f71427d1e84f3dd0314c0f7b2291e5b200ac8c7c3b925338484604051808473ffffffffffffffffffffffffffffffffffffffff1673ffffffffffffffffffffffffffffffffffffffff1681526020018373ffffffffffffffffffffffffffffffffffffffff1673ffffffffffffffffffffffffffffffffffffffff168152602001828152602001935050505060405180910390a16001905092915050565b6000600154905090565b6060610fcd600854612cab565b905090565b60008060008573ffffffffffffffffffffffffffffffffffffffff1673ffffffffffffffffffffffffffffffffffffffff16815260200190815260200160002054821115151561102157600080fd5b600260008573ffffffffffffffffffffffffffffffffffffffff1673ffffffffffffffffffffffffffffffffffffffff16815260200190815260200160002060003373ffffffffffffffffffffffffffffffffffffffff1673ffffffffffffffffffffffffffffffffffffffff1681526020019081526020016000205482111515156110ac57600080fd5b600073ffffffffffffffffffffffffffffffffffffffff168373ffffffffffffffffffffffffffffffffffffffff16141515156110e857600080fd5b611139826000808773ffffffffffffffffffffffffffffffffffffffff1673ffffffffffffffffffffffffffffffffffffffff16815260200190815260200160002054612e0290919063ffffffff16565b6000808673ffffffffffffffffffffffffffffffffffffffff1673ffffffffffffffffffffffffffffffffffffffff168152602001908152602001600020819055506111cc826000808673ffffffffffffffffffffffffffffffffffffffff1673ffffffffffffffffffffffffffffffffffffffff16815260200190815260200160002054612e1b90919063ffffffff16565b6000808573ffffffffffffffffffffffffffffffffffffffff1673ffffffffffffffffffffffffffffffffffffffff1681526020019081526020016000208190555061129d82600260008773ffffffffffffffffffffffffffffffffffffffff1673ffffffffffffffffffffffffffffffffffffffff16815260200190815260200160002060003373ffffffffffffffffffffffffffffffffffffffff1673ffffffffffffffffffffffffffffffffffffffff16815260200190815260200160002054612e0290919063ffffffff16565b600260008673ffffffffffffffffffffffffffffffffffffffff1673ffffffffffffffffffffffffffffffffffffffff16815260200190815260200160002060003373ffffffffffffffffffffffffffffffffffffffff1673ffffffffffffffffffffffffffffffffffffffff168152602001908152602001600020819055507fddf252ad1be2c89b69c2b068fc378daa952ba7f163c4a11628f55a4df523b3ef848484604051808473ffffffffffffffffffffffffffffffffffffffff1673ffffffffffffffffffffffffffffffffffffffff1681526020018373ffffffffffffffffffffffffffffffffffffffff1673ffffffffffffffffffffffffffffffffffffffff168152602001828152602001935050505060405180910390a1600190509392505050565b60065481565b60055481565b60096020528060005260406000206000915090508060000160009054906101000a900473ffffffffffffffffffffffffffffffffffffffff1690806001018054600181600116156101000203166002900480601f0160208091040260200160405190810160405280929190818152602001828054600181600116156101000203166002900480156114a55780601f1061147a576101008083540402835291602001916114a5565b820191906000526020600020905b81548152906001019060200180831161148857829003601f168201915b505050505090806002018054600181600116156101000203166002900480601f0160208091040260200160405190810160405280929190818152602001828054600181600116156101000203166002900480156115435780601f1061151857610100808354040283529160200191611543565b820191906000526020600020905b81548152906001019060200180831161152657829003601f168201915b5050505050908060030160009054906101000a900473ffffffffffffffffffffffffffffffffffffffff16905084565b61158881600154612e1b90919063ffffffff16565b6001819055506115df816000808573ffffffffffffffffffffffffffffffffffffffff1673ffffffffffffffffffffffffffffffffffffffff16815260200190815260200160002054612e1b90919063ffffffff16565b6000808473ffffffffffffffffffffffffffffffffffffffff1673ffffffffffffffffffffffffffffffffffffffff168152602001908152602001600020819055507fa4f4df726d60e3886846ea1ee4281c6404b9090c5520f72046c34ccbcb20c60e826000808573ffffffffffffffffffffffffffffffffffffffff1673ffffffffffffffffffffffffffffffffffffffff16815260200190815260200160002054604051808373ffffffffffffffffffffffffffffffffffffffff1673ffffffffffffffffffffffffffffffffffffffff1681526020018281526020019250505060405180910390a15050565b600060096000848152602001908152602001600020905060008160020180546001816001161561010002031660029004905014151561170c57600080fd5b6000825111151561171c57600080fd5b611727336001611573565b8181600201908051906020019061173f929190612e37565b507f582cf4159fa7ea58bce7c8fc48e3bc2ef0309be2c391e59955d8b84a2eff2871838260000160009054906101000a900473ffffffffffffffffffffffffffffffffffffffff1683600101846002018560030160009054906101000a900473ffffffffffffffffffffffffffffffffffffffff16604051808681526020018573ffffffffffffffffffffffffffffffffffffffff1673ffffffffffffffffffffffffffffffffffffffff16815260200180602001806020018473ffffffffffffffffffffffffffffffffffffffff1673ffffffffffffffffffffffffffffffffffffffff1681526020018381038352868181546001816001161561010002031660029004815260200191508054600181600116156101000203166002900480156118ab5780601f10611880576101008083540402835291602001916118ab565b820191906000526020600020905b81548152906001019060200180831161188e57829003601f168201915b505083810382528581815460018160011615610100020316600290048152602001915080546001816001161561010002031660029004801561192e5780601f106119035761010080835404028352916020019161192e565b820191906000526020600020905b81548152906001019060200180831161191157829003601f168201915b505097505050505050505060405180910390a1505050565b600161195133612009565b1015151561195e57600080fd5b61198b600760009054906101000a900473ffffffffffffffffffffffffffffffffffffffff166001610e8a565b151561199657600080fd5b6008600081548092919060010191905055506080604051908101604052803373ffffffffffffffffffffffffffffffffffffffff16815260200182815260200160206040519081016040528060008152508152602001600073ffffffffffffffffffffffffffffffffffffffff1681525060096000600854815260200190815260200160002060008201518160000160006101000a81548173ffffffffffffffffffffffffffffffffffffffff021916908373ffffffffffffffffffffffffffffffffffffffff1602179055506020820151816001019080519060200190611a7f929190612eb7565b506040820151816002019080519060200190611a9c929190612eb7565b5060608201518160030160006101000a81548173ffffffffffffffffffffffffffffffffffffffff021916908373ffffffffffffffffffffffffffffffffffffffff1602179055509050507f582cf4159fa7ea58bce7c8fc48e3bc2ef0309be2c391e59955d8b84a2eff287160085460096000600854815260200190815260200160002060000160009054906101000a900473ffffffffffffffffffffffffffffffffffffffff1660096000600854815260200190815260200160002060010160096000600854815260200190815260200160002060020160096000600854815260200190815260200160002060030160009054906101000a900473ffffffffffffffffffffffffffffffffffffffff16604051808681526020018573ffffffffffffffffffffffffffffffffffffffff1673ffffffffffffffffffffffffffffffffffffffff16815260200180602001806020018473ffffffffffffffffffffffffffffffffffffffff1673ffffffffffffffffffffffffffffffffffffffff168152602001838103835286818154600181600116156101000203166002900481526020019150805460018160011615610100020316600290048015611ca45780601f10611c7957610100808354040283529160200191611ca4565b820191906000526020600020905b815481529060010190602001808311611c8757829003601f168201915b5050838103825285818154600181600116156101000203166002900481526020019150805460018160011615610100020316600290048015611d275780601f10611cfc57610100808354040283529160200191611d27565b820191906000526020600020905b815481529060010190602001808311611d0a57829003601f168201915b505097505050505050505060405180910390a150565b600080600260003373ffffffffffffffffffffffffffffffffffffffff1673ffffffffffffffffffffffffffffffffffffffff16815260200190815260200160002060008573ffffffffffffffffffffffffffffffffffffffff1673ffffffffffffffffffffffffffffffffffffffff1681526020019081526020016000205490508083101515611e4f576000600260003373ffffffffffffffffffffffffffffffffffffffff1673ffffffffffffffffffffffffffffffffffffffff16815260200190815260200160002060008673ffffffffffffffffffffffffffffffffffffffff1673ffffffffffffffffffffffffffffffffffffffff16815260200190815260200160002081905550611ee3565b611e628382612e0290919063ffffffff16565b600260003373ffffffffffffffffffffffffffffffffffffffff1673ffffffffffffffffffffffffffffffffffffffff16815260200190815260200160002060008673ffffffffffffffffffffffffffffffffffffffff1673ffffffffffffffffffffffffffffffffffffffff168152602001908152602001600020819055505b7f8c5be1e5ebec7d5bd14f71427d1e84f3dd0314c0f7b2291e5b200ac8c7c3b9253385600260003373ffffffffffffffffffffffffffffffffffffffff1673ffffffffffffffffffffffffffffffffffffffff16815260200190815260200160002060008873ffffffffffffffffffffffffffffffffffffffff1673ffffffffffffffffffffffffffffffffffffffff16815260200190815260200160002054604051808473ffffffffffffffffffffffffffffffffffffffff1673ffffffffffffffffffffffffffffffffffffffff1681526020018373ffffffffffffffffffffffffffffffffffffffff1673ffffffffffffffffffffffffffffffffffffffff168152602001828152602001935050505060405180910390a1600191505092915050565b60008060008373ffffffffffffffffffffffffffffffffffffffff1673ffffffffffffffffffffffffffffffffffffffff168152602001908152602001600020549050919050565b60006009600083815260200190815260200160002060000160009054906101000a900473ffffffffffffffffffffffffffffffffffffffff169050919050565b6060600960008381526020019081526020016000206001018054600181600116156101000203166002900480601f01602080910402602001604051908101604052809291908181526020018280546001816001161561010002031660029004801561213d5780601f106121125761010080835404028352916020019161213d565b820191906000526020600020905b81548152906001019060200180831161212057829003601f168201915b50505050509050919050565b600760009054906101000a900473ffffffffffffffffffffffffffffffffffffffff1681565b60048054600181600116156101000203166002900480601f0160208091040260200160405190810160405280929190818152602001828054600181600116156101000203166002900480156122055780601f106121da57610100808354040283529160200191612205565b820191906000526020600020905b8154815290600101906020018083116121e857829003601f168201915b505050505081565b60008060003373ffffffffffffffffffffffffffffffffffffffff1673ffffffffffffffffffffffffffffffffffffffff16815260200190815260200160002054821115151561225c57600080fd5b600073ffffffffffffffffffffffffffffffffffffffff168373ffffffffffffffffffffffffffffffffffffffff161415151561229857600080fd5b6122e9826000803373ffffffffffffffffffffffffffffffffffffffff1673ffffffffffffffffffffffffffffffffffffffff16815260200190815260200160002054612e0290919063ffffffff16565b6000803373ffffffffffffffffffffffffffffffffffffffff1673ffffffffffffffffffffffffffffffffffffffff1681526020019081526020016000208190555061237c826000808673ffffffffffffffffffffffffffffffffffffffff1673ffffffffffffffffffffffffffffffffffffffff16815260200190815260200160002054612e1b90919063ffffffff16565b6000808573ffffffffffffffffffffffffffffffffffffffff1673ffffffffffffffffffffffffffffffffffffffff168152602001908152602001600020819055507fddf252ad1be2c89b69c2b068fc378daa952ba7f163c4a11628f55a4df523b3ef338484604051808473ffffffffffffffffffffffffffffffffffffffff1673ffffffffffffffffffffffffffffffffffffffff1681526020018373ffffffffffffffffffffffffffffffffffffffff1673ffffffffffffffffffffffffffffffffffffffff168152602001828152602001935050505060405180910390a16001905092915050565b6060600960008381526020019081526020016000206002018054600181600116156101000203166002900480601f0160208091040260200160405190810160405280929190818152602001828054600181600116156101000203166002900480156125135780601f106124e857610100808354040283529160200191612513565b820191906000526020600020905b8154815290600101906020018083116124f657829003601f168201915b50505050509050919050565b60006125b082600260003373ffffffffffffffffffffffffffffffffffffffff1673ffffffffffffffffffffffffffffffffffffffff16815260200190815260200160002060008673ffffffffffffffffffffffffffffffffffffffff1673ffffffffffffffffffffffffffffffffffffffff16815260200190815260200160002054612e1b90919063ffffffff16565b600260003373ffffffffffffffffffffffffffffffffffffffff1673ffffffffffffffffffffffffffffffffffffffff16815260200190815260200160002060008573ffffffffffffffffffffffffffffffffffffffff1673ffffffffffffffffffffffffffffffffffffffff168152602001908152602001600020819055507f8c5be1e5ebec7d5bd14f71427d1e84f3dd0314c0f7b2291e5b200ac8c7c3b9253384600260003373ffffffffffffffffffffffffffffffffffffffff1673ffffffffffffffffffffffffffffffffffffffff16815260200190815260200160002060008773ffffffffffffffffffffffffffffffffffffffff1673ffffffffffffffffffffffffffffffffffffffff16815260200190815260200160002054604051808473ffffffffffffffffffffffffffffffffffffffff1673ffffffffffffffffffffffffffffffffffffffff1681526020018373ffffffffffffffffffffffffffffffffffffffff1673ffffffffffffffffffffffffffffffffffffffff168152602001828152602001935050505060405180910390a16001905092915050565b606061276861276383612009565b612cab565b9050919050565b60606000606080600061278186612cab565b6009600088815260200190815260200160002060000160009054906101000a900473ffffffffffffffffffffffffffffffffffffffff1660096000898152602001908152602001600020600101600960008a8152602001908152602001600020600201600960008b815260200190815260200160002060030160009054906101000a900473ffffffffffffffffffffffffffffffffffffffff16828054600181600116156101000203166002900480601f0160208091040260200160405190810160405280929190818152602001828054600181600116156101000203166002900480156128b05780601f10612885576101008083540402835291602001916128b0565b820191906000526020600020905b81548152906001019060200180831161289357829003601f168201915b50505050509250818054600181600116156101000203166002900480601f01602080910402602001604051908101604052809291908181526020018280546001816001161561010002031660029004801561294c5780601f106129215761010080835404028352916020019161294c565b820191906000526020600020905b81548152906001019060200180831161292f57829003601f168201915b505050505091509450945094509450945091939590929450565b60006009600084815260200190815260200160002090508060000160009054906101000a900473ffffffffffffffffffffffffffffffffffffffff1673ffffffffffffffffffffffffffffffffffffffff163373ffffffffffffffffffffffffffffffffffffffff161415156129db57600080fd5b818160030160006101000a81548173ffffffffffffffffffffffffffffffffffffffff021916908373ffffffffffffffffffffffffffffffffffffffff1602179055507f582cf4159fa7ea58bce7c8fc48e3bc2ef0309be2c391e59955d8b84a2eff2871838260000160009054906101000a900473ffffffffffffffffffffffffffffffffffffffff1683600101846002018560030160009054906101000a900473ffffffffffffffffffffffffffffffffffffffff16604051808681526020018573ffffffffffffffffffffffffffffffffffffffff1673ffffffffffffffffffffffffffffffffffffffff16815260200180602001806020018473ffffffffffffffffffffffffffffffffffffffff1673ffffffffffffffffffffffffffffffffffffffff168152602001838103835286818154600181600116156101000203166002900481526020019150805460018160011615610100020316600290048015612b895780601f10612b5e57610100808354040283529160200191612b89565b820191906000526020600020905b815481529060010190602001808311612b6c57829003601f168201915b5050838103825285818154600181600116156101000203166002900481526020019150805460018160011615610100020316600290048015612c0c5780601f10612be157610100808354040283529160200191612c0c565b820191906000526020600020905b815481529060010190602001808311612bef57829003601f168201915b505097505050505050505060405180910390a1505050565b6000600260008473ffffffffffffffffffffffffffffffffffffffff1673ffffffffffffffffffffffffffffffffffffffff16815260200190815260200160002060008373ffffffffffffffffffffffffffffffffffffffff1673ffffffffffffffffffffffffffffffffffffffff16815260200190815260200160002054905092915050565b60606000806060600080861415612cf9576040805190810160405280600181526020017f30000000000000000000000000000000000000000000000000000000000000008152509450612df9565b8593505b600084141515612d23578280600101935050600a84811515612d1b57fe5b049350612cfd565b826040519080825280601f01601f191660200182016040528015612d565781602001602082028038833980820191505090505b5091506001830390505b600086141515612df557600a86811515612d7657fe5b066030017f010000000000000000000000000000000000000000000000000000000000000002828280600190039350815181101515612db157fe5b9060200101907effffffffffffffffffffffffffffffffffffffffffffffffffffffffffffff1916908160001a905350600a86811515612ded57fe5b049550612d60565b8194505b50505050919050565b6000828211151515612e1057fe5b818303905092915050565b60008183019050828110151515612e2e57fe5b80905092915050565b828054600181600116156101000203166002900490600052602060002090601f016020900481019282601f10612e7857805160ff1916838001178555612ea6565b82800160010185558215612ea6579182015b82811115612ea5578251825591602001919060010190612e8a565b5b509050612eb39190612f37565b5090565b828054600181600116156101000203166002900490600052602060002090601f016020900481019282601f10612ef857805160ff1916838001178555612f26565b82800160010185558215612f26579182015b82811115612f25578251825591602001919060010190612f0a565b5b509050612f339190612f37565b5090565b612f5991905b80821115612f55576000816000905550600101612f3d565b5090565b905600a165627a7a72305820e1b8f2dbdd14e66bc8720853a72435c8e8af659a0549f9de0535e8d699b3f77e0029",
  "source": "pragma solidity ^0.4.24;\n\nimport './QAToken.sol';\n\n//TODO seperate token logic into its own contract\ncontract QAOracle is QAToken {\n  address public owner;\n  uint256 private _questionId;\n  mapping (uint256 => Question) public questions;\n\n  event QuestionUpdated(\n    uint qId,\n    address askerAddress,\n    string qText,\n    string answer,\n    address requestedResponder\n  );\n\n  struct Question {\n    address qAddress;\n    string qText;\n    string answer;\n    address requestedResponder;\n  }\n\n  constructor () public {\n    owner = msg.sender;\n    _questionId = 0;\n  }\n\n  modifier isOwner() {\n    require(msg.sender == owner);\n    _;\n  }\n\n  function askQuestion(string question) public payable {\n    require(balanceOf(msg.sender) >= 1);\n    require(approve(owner, 1));\n    _questionId++;\n    questions[_questionId] = Question(msg.sender, question, '', address(0));\n    emit QuestionUpdated(\n      _questionId,\n      questions[_questionId].qAddress,\n      questions[_questionId].qText,\n      questions[_questionId].answer,\n      questions[_questionId].requestedResponder\n    );\n  }\n\n  function answerQuestion(uint256 qId, string answer) public {\n    Question storage question = questions[qId];\n    require(bytes(question.answer).length == 0);\n    require(bytes(answer).length > 0);\n    //TODO create oracle?\n    /* require(transferFrom(question.qAddress, owner, 1)); */\n    mint(msg.sender, 1);\n    question.answer = answer;\n\n    emit QuestionUpdated(\n      qId,\n      question.qAddress,\n      question.qText,\n      question.answer,\n      question.requestedResponder\n    );\n  }\n\n  function assignQuestion(uint qId, address to) public {\n    Question storage question = questions[qId];\n    require(msg.sender == question.qAddress);\n    question.requestedResponder = to;\n\n    emit QuestionUpdated(\n      qId,\n      question.qAddress,\n      question.qText,\n      question.answer,\n      question.requestedResponder\n    );\n  }\n\n  //Getters\n  function getQuestionText(uint256 qId) public view returns (string) {\n    return questions[qId].qText;\n  }\n\n  function getQuestionAsker(uint qId) public view returns (address) {\n    return questions[qId].qAddress;\n  }\n\n  function getQuestionAnswer(uint256 qId) public view returns (string) {\n    return questions[qId].answer;\n  }\n\n  function getQuestion(uint256 qId) public view returns (string, address, string, string, address) {\n    return (\n        _uint2str(qId),\n        questions[qId].qAddress,\n        questions[qId].qText,\n        questions[qId].answer,\n        questions[qId].requestedResponder\n      );\n  }\n\n  //TODO figure out correct return type for frontend, bignum causes error\n  function getQuestionsTotal() public view returns(string) {\n    return _uint2str(_questionId);\n  }\n\n  /* function getTokenReward(uint qId) public {\n    Question storage question = questions[qId];\n    require (msg.sender == question.answerer);\n    require (transferFrom(owner, msg.sender, 1));\n  } */\n}\n",
  "sourcePath": "/Users/davidammons/Desktop/qASolidity/smartContracts/contracts/QAOracle.sol",
  "compiler": {
    "name": "solc",
    "version": "0.4.24+commit.e67f0147.Emscripten.clang"
  },
  "schemaVersion": "2.0.1",
  "updatedAt": "2018-10-15T07:05:09.360Z"
}