{
  "contractName": "QAOracle",
  "abi": [
    {
      "inputs": [],
      "payable": false,
      "stateMutability": "nonpayable",
      "type": "constructor"
    },
    {
      "anonymous": false,
      "inputs": [
        {
          "indexed": false,
          "name": "sender",
          "type": "address"
        },
        {
          "indexed": false,
          "name": "value",
          "type": "uint256"
        }
      ],
      "name": "debug",
      "type": "event"
    },
    {
      "constant": false,
      "inputs": [
        {
          "name": "qAddr",
          "type": "address"
        },
        {
          "name": "question",
          "type": "string"
        }
      ],
      "name": "addQuestion",
      "outputs": [],
      "payable": true,
      "stateMutability": "payable",
      "type": "function"
    },
    {
      "constant": true,
      "inputs": [
        {
          "name": "qAddr",
          "type": "address"
        }
      ],
      "name": "getQuestion",
      "outputs": [
        {
          "name": "",
          "type": "string"
        }
      ],
      "payable": false,
      "stateMutability": "view",
      "type": "function"
    },
    {
      "constant": true,
      "inputs": [
        {
          "name": "qAddr",
          "type": "address"
        }
      ],
      "name": "getQuestionBounty",
      "outputs": [
        {
          "name": "",
          "type": "uint256"
        }
      ],
      "payable": false,
      "stateMutability": "view",
      "type": "function"
    },
    {
      "constant": true,
      "inputs": [
        {
          "name": "qAddr",
          "type": "address"
        }
      ],
      "name": "getQuestionAnswer",
      "outputs": [
        {
          "name": "",
          "type": "string"
        }
      ],
      "payable": false,
      "stateMutability": "view",
      "type": "function"
    },
    {
      "constant": false,
      "inputs": [
        {
          "name": "qAddr",
          "type": "address"
        },
        {
          "name": "aAddr",
          "type": "address"
        },
        {
          "name": "answer",
          "type": "string"
        }
      ],
      "name": "answerQuestion",
      "outputs": [],
      "payable": false,
      "stateMutability": "nonpayable",
      "type": "function"
    }
  ],
  "bytecode": "0x608060405234801561001057600080fd5b50336000806101000a81548173ffffffffffffffffffffffffffffffffffffffff021916908373ffffffffffffffffffffffffffffffffffffffff160217905550610a57806100606000396000f30060806040526004361061006d576000357c0100000000000000000000000000000000000000000000000000000000900463ffffffff168063059d4cb71461007257806366125a81146100ee57806373d4ca2f146101aa57806399400aaf14610266578063d93f08aa1461030f575b600080fd5b6100ec600480360381019080803573ffffffffffffffffffffffffffffffffffffffff169060200190929190803590602001908201803590602001908080601f0160208091040260200160405190810160405280939291908181526020018383808284378201915050505050509192919290505050610366565b005b3480156100fa57600080fd5b5061012f600480360381019080803573ffffffffffffffffffffffffffffffffffffffff169060200190929190505050610554565b6040518080602001828103825283818151815260200191508051906020019080838360005b8381101561016f578082015181840152602081019050610154565b50505050905090810190601f16801561019c5780820380516001836020036101000a031916815260200191505b509250505060405180910390f35b3480156101b657600080fd5b506101eb600480360381019080803573ffffffffffffffffffffffffffffffffffffffff169060200190929190505050610638565b6040518080602001828103825283818151815260200191508051906020019080838360005b8381101561022b578082015181840152602081019050610210565b50505050905090810190601f1680156102585780820380516001836020036101000a031916815260200191505b509250505060405180910390f35b34801561027257600080fd5b5061030d600480360381019080803573ffffffffffffffffffffffffffffffffffffffff169060200190929190803573ffffffffffffffffffffffffffffffffffffffff169060200190929190803590602001908201803590602001908080601f016020809104026020016040519081016040528093929190818152602001838380828437820191505050505050919291929050505061071c565b005b34801561031b57600080fd5b50610350600480360381019080803573ffffffffffffffffffffffffffffffffffffffff1690602001909291905050506108ba565b6040518082815260200191505060405180910390f35b6000809054906101000a900473ffffffffffffffffffffffffffffffffffffffff1673ffffffffffffffffffffffffffffffffffffffff163373ffffffffffffffffffffffffffffffffffffffff161415156103c157600080fd5b6000341115156103d057600080fd5b7f5e425538c7e29a3d46eeeb3adb5e33e85e1548fb34404f88df642c95e2e0f9b78234604051808373ffffffffffffffffffffffffffffffffffffffff1673ffffffffffffffffffffffffffffffffffffffff1681526020018281526020019250505060405180910390a16080604051908101604052808373ffffffffffffffffffffffffffffffffffffffff1681526020018281526020013481526020016020604051908101604052806000815250815250600160008473ffffffffffffffffffffffffffffffffffffffff1673ffffffffffffffffffffffffffffffffffffffff16815260200190815260200160002060008201518160000160006101000a81548173ffffffffffffffffffffffffffffffffffffffff021916908373ffffffffffffffffffffffffffffffffffffffff1602179055506020820151816001019080519060200190610525929190610906565b5060408201518160020155606082015181600301908051906020019061054c929190610906565b509050505050565b6060600160008373ffffffffffffffffffffffffffffffffffffffff1673ffffffffffffffffffffffffffffffffffffffff1681526020019081526020016000206003018054600181600116156101000203166002900480601f01602080910402602001604051908101604052809291908181526020018280546001816001161561010002031660029004801561062c5780601f106106015761010080835404028352916020019161062c565b820191906000526020600020905b81548152906001019060200180831161060f57829003601f168201915b50505050509050919050565b6060600160008373ffffffffffffffffffffffffffffffffffffffff1673ffffffffffffffffffffffffffffffffffffffff1681526020019081526020016000206001018054600181600116156101000203166002900480601f0160208091040260200160405190810160405280929190818152602001828054600181600116156101000203166002900480156107105780601f106106e557610100808354040283529160200191610710565b820191906000526020600020905b8154815290600101906020018083116106f357829003601f168201915b50505050509050919050565b60008060009054906101000a900473ffffffffffffffffffffffffffffffffffffffff1673ffffffffffffffffffffffffffffffffffffffff163373ffffffffffffffffffffffffffffffffffffffff1614151561077957600080fd5b600160008573ffffffffffffffffffffffffffffffffffffffff1673ffffffffffffffffffffffffffffffffffffffff16815260200190815260200160002090506000816003018054600181600116156101000203166002900490501415156107e157600080fd5b7f5e425538c7e29a3d46eeeb3adb5e33e85e1548fb34404f88df642c95e2e0f9b7838260020154604051808373ffffffffffffffffffffffffffffffffffffffff1673ffffffffffffffffffffffffffffffffffffffff1681526020018281526020019250505060405180910390a181816003019080519060200190610868929190610986565b508273ffffffffffffffffffffffffffffffffffffffff166108fc82600201549081150290604051600060405180830381858888f193505050501580156108b3573d6000803e3d6000fd5b5050505050565b6000600160008373ffffffffffffffffffffffffffffffffffffffff1673ffffffffffffffffffffffffffffffffffffffff168152602001908152602001600020600201549050919050565b828054600181600116156101000203166002900490600052602060002090601f016020900481019282601f1061094757805160ff1916838001178555610975565b82800160010185558215610975579182015b82811115610974578251825591602001919060010190610959565b5b5090506109829190610a06565b5090565b828054600181600116156101000203166002900490600052602060002090601f016020900481019282601f106109c757805160ff19168380011785556109f5565b828001600101855582156109f5579182015b828111156109f45782518255916020019190600101906109d9565b5b509050610a029190610a06565b5090565b610a2891905b80821115610a24576000816000905550600101610a0c565b5090565b905600a165627a7a723058209390547c79ba14031ae123c74fd0c9dba5da722a0c4d5a2d2006403f3e63594a0029",
  "source": "pragma solidity ^0.4.24;\n\ncontract QAOracle {\n  address internal oracleAddress;\n  mapping (address => Question) questions;\n\n  event debug( address sender, uint256 value );\n\n  struct Question {\n    address qAddress;\n    string qText;\n    uint256 bounty;\n    string answer;\n  }\n\n  constructor () public {\n    oracleAddress = msg.sender;\n  }\n\n  modifier onlyOracle() {\n    require(msg.sender == oracleAddress);\n    _;\n  }\n\n  function addQuestion(address qAddr, string question) public onlyOracle payable {\n    require (msg.value > 0);\n    emit debug( qAddr, msg.value );\n    questions[qAddr] = Question(qAddr, question, msg.value, '');\n  }\n\n  function getQuestion(address qAddr) public view returns(string) {\n    return questions[qAddr].qText;\n  }\n\n  function getQuestionBounty(address qAddr) public view returns(uint256) {\n    return questions[qAddr].bounty;\n  }\n\n  function getQuestionAnswer(address qAddr) public view returns(string) {\n    return questions[qAddr].answer;\n  }\n\n  function answerQuestion(address qAddr, address aAddr, string answer) public onlyOracle {\n    Question storage question = questions[qAddr];\n    require (bytes(question.answer).length == 0);\n    emit debug (aAddr, question.bounty);\n    question.answer = answer;\n    aAddr.transfer(question.bounty);\n  }\n}\n",
  "sourcePath": "/Users/davidammons/Desktop/qASolidity/smartContracts/contracts/QAOracle.sol",
  "compiler": {
    "name": "solc",
    "version": "0.4.24+commit.e67f0147.Emscripten.clang"
  },
  "schemaVersion": "2.0.1",
  "updatedAt": "2018-10-11T15:30:19.991Z"
}