{
  "contractName": "QAOracle",
  "abi": [
    {
      "constant": true,
      "inputs": [],
      "name": "name",
      "outputs": [
        {
          "name": "",
          "type": "string"
        }
      ],
      "payable": false,
      "stateMutability": "view",
      "type": "function"
    },
    {
      "constant": false,
      "inputs": [
        {
          "name": "_spender",
          "type": "address"
        },
        {
          "name": "_value",
          "type": "uint256"
        }
      ],
      "name": "approve",
      "outputs": [
        {
          "name": "",
          "type": "bool"
        }
      ],
      "payable": false,
      "stateMutability": "nonpayable",
      "type": "function"
    },
    {
      "constant": true,
      "inputs": [],
      "name": "totalSupply",
      "outputs": [
        {
          "name": "",
          "type": "uint256"
        }
      ],
      "payable": false,
      "stateMutability": "view",
      "type": "function"
    },
    {
      "constant": false,
      "inputs": [
        {
          "name": "_from",
          "type": "address"
        },
        {
          "name": "_to",
          "type": "address"
        },
        {
          "name": "_value",
          "type": "uint256"
        }
      ],
      "name": "transferFrom",
      "outputs": [
        {
          "name": "",
          "type": "bool"
        }
      ],
      "payable": false,
      "stateMutability": "nonpayable",
      "type": "function"
    },
    {
      "constant": true,
      "inputs": [],
      "name": "INITIAL_SUPPLY",
      "outputs": [
        {
          "name": "",
          "type": "uint256"
        }
      ],
      "payable": false,
      "stateMutability": "view",
      "type": "function"
    },
    {
      "constant": true,
      "inputs": [],
      "name": "decimals",
      "outputs": [
        {
          "name": "",
          "type": "uint256"
        }
      ],
      "payable": false,
      "stateMutability": "view",
      "type": "function"
    },
    {
      "constant": true,
      "inputs": [
        {
          "name": "",
          "type": "uint256"
        }
      ],
      "name": "questions",
      "outputs": [
        {
          "name": "qAddress",
          "type": "address"
        },
        {
          "name": "qText",
          "type": "string"
        },
        {
          "name": "answer",
          "type": "string"
        }
      ],
      "payable": false,
      "stateMutability": "view",
      "type": "function"
    },
    {
      "constant": false,
      "inputs": [
        {
          "name": "_spender",
          "type": "address"
        },
        {
          "name": "_subtractedValue",
          "type": "uint256"
        }
      ],
      "name": "decreaseApproval",
      "outputs": [
        {
          "name": "",
          "type": "bool"
        }
      ],
      "payable": false,
      "stateMutability": "nonpayable",
      "type": "function"
    },
    {
      "constant": true,
      "inputs": [
        {
          "name": "_owner",
          "type": "address"
        }
      ],
      "name": "balanceOf",
      "outputs": [
        {
          "name": "",
          "type": "uint256"
        }
      ],
      "payable": false,
      "stateMutability": "view",
      "type": "function"
    },
    {
      "constant": true,
      "inputs": [],
      "name": "owner",
      "outputs": [
        {
          "name": "",
          "type": "address"
        }
      ],
      "payable": false,
      "stateMutability": "view",
      "type": "function"
    },
    {
      "constant": true,
      "inputs": [],
      "name": "symbol",
      "outputs": [
        {
          "name": "",
          "type": "string"
        }
      ],
      "payable": false,
      "stateMutability": "view",
      "type": "function"
    },
    {
      "constant": false,
      "inputs": [
        {
          "name": "_to",
          "type": "address"
        },
        {
          "name": "_value",
          "type": "uint256"
        }
      ],
      "name": "transfer",
      "outputs": [
        {
          "name": "",
          "type": "bool"
        }
      ],
      "payable": false,
      "stateMutability": "nonpayable",
      "type": "function"
    },
    {
      "constant": false,
      "inputs": [
        {
          "name": "_spender",
          "type": "address"
        },
        {
          "name": "_addedValue",
          "type": "uint256"
        }
      ],
      "name": "increaseApproval",
      "outputs": [
        {
          "name": "",
          "type": "bool"
        }
      ],
      "payable": false,
      "stateMutability": "nonpayable",
      "type": "function"
    },
    {
      "constant": true,
      "inputs": [
        {
          "name": "_owner",
          "type": "address"
        },
        {
          "name": "_spender",
          "type": "address"
        }
      ],
      "name": "allowance",
      "outputs": [
        {
          "name": "",
          "type": "uint256"
        }
      ],
      "payable": false,
      "stateMutability": "view",
      "type": "function"
    },
    {
      "inputs": [],
      "payable": false,
      "stateMutability": "nonpayable",
      "type": "constructor"
    },
    {
      "anonymous": false,
      "inputs": [
        {
          "indexed": false,
          "name": "askerAddress",
          "type": "address"
        },
        {
          "indexed": false,
          "name": "qId",
          "type": "uint256"
        },
        {
          "indexed": false,
          "name": "qText",
          "type": "string"
        }
      ],
      "name": "QuestionAdded",
      "type": "event"
    },
    {
      "anonymous": false,
      "inputs": [
        {
          "indexed": false,
          "name": "qId",
          "type": "uint256"
        },
        {
          "indexed": false,
          "name": "aText",
          "type": "string"
        }
      ],
      "name": "QuestionAnswered",
      "type": "event"
    },
    {
      "anonymous": false,
      "inputs": [
        {
          "indexed": false,
          "name": "owner",
          "type": "address"
        },
        {
          "indexed": false,
          "name": "spender",
          "type": "address"
        },
        {
          "indexed": false,
          "name": "value",
          "type": "uint256"
        }
      ],
      "name": "Approval",
      "type": "event"
    },
    {
      "anonymous": false,
      "inputs": [
        {
          "indexed": false,
          "name": "from",
          "type": "address"
        },
        {
          "indexed": false,
          "name": "to",
          "type": "address"
        },
        {
          "indexed": false,
          "name": "value",
          "type": "uint256"
        }
      ],
      "name": "Transfer",
      "type": "event"
    },
    {
      "constant": false,
      "inputs": [
        {
          "name": "to",
          "type": "address"
        },
        {
          "name": "amt",
          "type": "uint256"
        }
      ],
      "name": "sendTokens",
      "outputs": [],
      "payable": false,
      "stateMutability": "nonpayable",
      "type": "function"
    },
    {
      "constant": false,
      "inputs": [
        {
          "name": "question",
          "type": "string"
        }
      ],
      "name": "askQuestion",
      "outputs": [],
      "payable": true,
      "stateMutability": "payable",
      "type": "function"
    },
    {
      "constant": false,
      "inputs": [
        {
          "name": "addr",
          "type": "address"
        }
      ],
      "name": "transferTo",
      "outputs": [],
      "payable": false,
      "stateMutability": "nonpayable",
      "type": "function"
    },
    {
      "constant": true,
      "inputs": [
        {
          "name": "qId",
          "type": "uint256"
        }
      ],
      "name": "getQuestionText",
      "outputs": [
        {
          "name": "",
          "type": "string"
        }
      ],
      "payable": false,
      "stateMutability": "view",
      "type": "function"
    },
    {
      "constant": true,
      "inputs": [
        {
          "name": "qId",
          "type": "uint256"
        }
      ],
      "name": "getQuestionAnswer",
      "outputs": [
        {
          "name": "",
          "type": "string"
        }
      ],
      "payable": false,
      "stateMutability": "view",
      "type": "function"
    },
    {
      "constant": true,
      "inputs": [
        {
          "name": "addr",
          "type": "address"
        }
      ],
      "name": "getAcctBalance",
      "outputs": [
        {
          "name": "",
          "type": "uint256"
        }
      ],
      "payable": false,
      "stateMutability": "view",
      "type": "function"
    },
    {
      "constant": false,
      "inputs": [
        {
          "name": "qId",
          "type": "uint256"
        },
        {
          "name": "aAddr",
          "type": "address"
        },
        {
          "name": "answer",
          "type": "string"
        }
      ],
      "name": "answerQuestion",
      "outputs": [],
      "payable": false,
      "stateMutability": "nonpayable",
      "type": "function"
    }
  ],
  "bytecode": "0x60806040526040805190810160405280600781526020017f5141546f6b656e0000000000000000000000000000000000000000000000000081525060039080519060200190620000519291906200015d565b506040805190810160405280600381526020017f5141540000000000000000000000000000000000000000000000000000000000815250600490805190602001906200009f9291906200015d565b506000600555600554600a0a61271002600655348015620000bf57600080fd5b506006546001819055506006546000803373ffffffffffffffffffffffffffffffffffffffff1673ffffffffffffffffffffffffffffffffffffffff1681526020019081526020016000208190555033600760006101000a81548173ffffffffffffffffffffffffffffffffffffffff021916908373ffffffffffffffffffffffffffffffffffffffff16021790555060006008819055506200020c565b828054600181600116156101000203166002900490600052602060002090601f016020900481019282601f10620001a057805160ff1916838001178555620001d1565b82800160010185558215620001d1579182015b82811115620001d0578251825591602001919060010190620001b3565b5b509050620001e09190620001e4565b5090565b6200020991905b8082111562000205576000816000905550600101620001eb565b5090565b90565b6121b7806200021c6000396000f30060806040526004361061011d576000357c0100000000000000000000000000000000000000000000000000000000900463ffffffff16806305ab421d1461012257806306fdde031461016f578063095ea7b3146101ff57806318160ddd1461026457806323b872dd1461028f5780632ff2e9dc14610314578063313ce5671461033f57806331b1b9781461036a578063514490c7146104af578063602bdec814610542578063661884631461059e57806370a082311461060357806383915ee21461065a5780638da5cb5b1461070057806395d89b4114610757578063a03fa7e3146107e7578063a9059cbb1461082a578063acf34adc1461088f578063d73dd62314610935578063d7ff167f1461099a578063dd62ed3e146109f1575b600080fd5b34801561012e57600080fd5b5061016d600480360381019080803573ffffffffffffffffffffffffffffffffffffffff16906020019092919080359060200190929190505050610a68565b005b34801561017b57600080fd5b50610184610a77565b6040518080602001828103825283818151815260200191508051906020019080838360005b838110156101c45780820151818401526020810190506101a9565b50505050905090810190601f1680156101f15780820380516001836020036101000a031916815260200191505b509250505060405180910390f35b34801561020b57600080fd5b5061024a600480360381019080803573ffffffffffffffffffffffffffffffffffffffff16906020019092919080359060200190929190505050610b15565b604051808215151515815260200191505060405180910390f35b34801561027057600080fd5b50610279610c41565b6040518082815260200191505060405180910390f35b34801561029b57600080fd5b506102fa600480360381019080803573ffffffffffffffffffffffffffffffffffffffff169060200190929190803573ffffffffffffffffffffffffffffffffffffffff16906020019092919080359060200190929190505050610c4b565b604051808215151515815260200191505060405180910390f35b34801561032057600080fd5b50610329611040565b6040518082815260200191505060405180910390f35b34801561034b57600080fd5b50610354611046565b6040518082815260200191505060405180910390f35b34801561037657600080fd5b506103956004803603810190808035906020019092919050505061104c565b604051808473ffffffffffffffffffffffffffffffffffffffff1673ffffffffffffffffffffffffffffffffffffffff1681526020018060200180602001838103835285818151815260200191508051906020019080838360005b8381101561040b5780820151818401526020810190506103f0565b50505050905090810190601f1680156104385780820380516001836020036101000a031916815260200191505b50838103825284818151815260200191508051906020019080838360005b83811015610471578082015181840152602081019050610456565b50505050905090810190601f16801561049e5780820380516001836020036101000a031916815260200191505b509550505050505060405180910390f35b3480156104bb57600080fd5b5061054060048036038101908080359060200190929190803573ffffffffffffffffffffffffffffffffffffffff169060200190929190803590602001908201803590602001908080601f01602080910402602001604051908101604052809392919081815260200183838082843782019150505050505091929192905050506111c6565b005b61059c600480360381019080803590602001908201803590602001908080601f0160208091040260200160405190810160405280939291908181526020018383808284378201915050505050509192919290505050611396565b005b3480156105aa57600080fd5b506105e9600480360381019080803573ffffffffffffffffffffffffffffffffffffffff169060200190929190803590602001909291905050506115b0565b604051808215151515815260200191505060405180910390f35b34801561060f57600080fd5b50610644600480360381019080803573ffffffffffffffffffffffffffffffffffffffff16906020019092919050505061187c565b6040518082815260200191505060405180910390f35b34801561066657600080fd5b50610685600480360381019080803590602001909291905050506118c4565b6040518080602001828103825283818151815260200191508051906020019080838360005b838110156106c55780820151818401526020810190506106aa565b50505050905090810190601f1680156106f25780820380516001836020036101000a031916815260200191505b509250505060405180910390f35b34801561070c57600080fd5b5061071561197c565b604051808273ffffffffffffffffffffffffffffffffffffffff1673ffffffffffffffffffffffffffffffffffffffff16815260200191505060405180910390f35b34801561076357600080fd5b5061076c6119a2565b6040518080602001828103825283818151815260200191508051906020019080838360005b838110156107ac578082015181840152602081019050610791565b50505050905090810190601f1680156107d95780820380516001836020036101000a031916815260200191505b509250505060405180910390f35b3480156107f357600080fd5b50610828600480360381019080803573ffffffffffffffffffffffffffffffffffffffff169060200190929190505050611a40565b005b34801561083657600080fd5b50610875600480360381019080803573ffffffffffffffffffffffffffffffffffffffff16906020019092919080359060200190929190505050611a50565b604051808215151515815260200191505060405180910390f35b34801561089b57600080fd5b506108ba60048036038101908080359060200190929190505050611caa565b6040518080602001828103825283818151815260200191508051906020019080838360005b838110156108fa5780820151818401526020810190506108df565b50505050905090810190601f1680156109275780820380516001836020036101000a031916815260200191505b509250505060405180910390f35b34801561094157600080fd5b50610980600480360381019080803573ffffffffffffffffffffffffffffffffffffffff16906020019092919080359060200190929190505050611d62565b604051808215151515815260200191505060405180910390f35b3480156109a657600080fd5b506109db600480360381019080803573ffffffffffffffffffffffffffffffffffffffff169060200190929190505050611f98565b6040518082815260200191505060405180910390f35b3480156109fd57600080fd5b50610a52600480360381019080803573ffffffffffffffffffffffffffffffffffffffff169060200190929190803573ffffffffffffffffffffffffffffffffffffffff169060200190929190505050611faa565b6040518082815260200191505060405180910390f35b610a728282611a50565b505050565b60038054600181600116156101000203166002900480601f016020809104026020016040519081016040528092919081815260200182805460018160011615610100020316600290048015610b0d5780601f10610ae257610100808354040283529160200191610b0d565b820191906000526020600020905b815481529060010190602001808311610af057829003601f168201915b505050505081565b600081600260003373ffffffffffffffffffffffffffffffffffffffff1673ffffffffffffffffffffffffffffffffffffffff16815260200190815260200160002060008573ffffffffffffffffffffffffffffffffffffffff1673ffffffffffffffffffffffffffffffffffffffff168152602001908152602001600020819055507f8c5be1e5ebec7d5bd14f71427d1e84f3dd0314c0f7b2291e5b200ac8c7c3b925338484604051808473ffffffffffffffffffffffffffffffffffffffff1673ffffffffffffffffffffffffffffffffffffffff1681526020018373ffffffffffffffffffffffffffffffffffffffff1673ffffffffffffffffffffffffffffffffffffffff168152602001828152602001935050505060405180910390a16001905092915050565b6000600154905090565b60008060008573ffffffffffffffffffffffffffffffffffffffff1673ffffffffffffffffffffffffffffffffffffffff168152602001908152602001600020548211151515610c9a57600080fd5b600260008573ffffffffffffffffffffffffffffffffffffffff1673ffffffffffffffffffffffffffffffffffffffff16815260200190815260200160002060003373ffffffffffffffffffffffffffffffffffffffff1673ffffffffffffffffffffffffffffffffffffffff168152602001908152602001600020548211151515610d2557600080fd5b600073ffffffffffffffffffffffffffffffffffffffff168373ffffffffffffffffffffffffffffffffffffffff1614151515610d6157600080fd5b610db2826000808773ffffffffffffffffffffffffffffffffffffffff1673ffffffffffffffffffffffffffffffffffffffff1681526020019081526020016000205461203190919063ffffffff16565b6000808673ffffffffffffffffffffffffffffffffffffffff1673ffffffffffffffffffffffffffffffffffffffff16815260200190815260200160002081905550610e45826000808673ffffffffffffffffffffffffffffffffffffffff1673ffffffffffffffffffffffffffffffffffffffff1681526020019081526020016000205461204a90919063ffffffff16565b6000808573ffffffffffffffffffffffffffffffffffffffff1673ffffffffffffffffffffffffffffffffffffffff16815260200190815260200160002081905550610f1682600260008773ffffffffffffffffffffffffffffffffffffffff1673ffffffffffffffffffffffffffffffffffffffff16815260200190815260200160002060003373ffffffffffffffffffffffffffffffffffffffff1673ffffffffffffffffffffffffffffffffffffffff1681526020019081526020016000205461203190919063ffffffff16565b600260008673ffffffffffffffffffffffffffffffffffffffff1673ffffffffffffffffffffffffffffffffffffffff16815260200190815260200160002060003373ffffffffffffffffffffffffffffffffffffffff1673ffffffffffffffffffffffffffffffffffffffff168152602001908152602001600020819055507fddf252ad1be2c89b69c2b068fc378daa952ba7f163c4a11628f55a4df523b3ef848484604051808473ffffffffffffffffffffffffffffffffffffffff1673ffffffffffffffffffffffffffffffffffffffff1681526020018373ffffffffffffffffffffffffffffffffffffffff1673ffffffffffffffffffffffffffffffffffffffff168152602001828152602001935050505060405180910390a1600190509392505050565b60065481565b60055481565b60096020528060005260406000206000915090508060000160009054906101000a900473ffffffffffffffffffffffffffffffffffffffff1690806001018054600181600116156101000203166002900480601f01602080910402602001604051908101604052809291908181526020018280546001816001161561010002031660029004801561111e5780601f106110f35761010080835404028352916020019161111e565b820191906000526020600020905b81548152906001019060200180831161110157829003601f168201915b505050505090806002018054600181600116156101000203166002900480601f0160208091040260200160405190810160405280929190818152602001828054600181600116156101000203166002900480156111bc5780601f10611191576101008083540402835291602001916111bc565b820191906000526020600020905b81548152906001019060200180831161119f57829003601f168201915b5050505050905083565b6000600760009054906101000a900473ffffffffffffffffffffffffffffffffffffffff1673ffffffffffffffffffffffffffffffffffffffff163373ffffffffffffffffffffffffffffffffffffffff1614151561122457600080fd5b60096000858152602001908152602001600020905060008160020180546001816001161561010002031660029004905014151561126057600080fd5b6112b28160000160009054906101000a900473ffffffffffffffffffffffffffffffffffffffff16600760009054906101000a900473ffffffffffffffffffffffffffffffffffffffff166001610c4b565b15156112bd57600080fd5b6112c8836001610b15565b15156112d357600080fd5b818160020190805190602001906112eb929190612066565b507f561cfabf8b75cc7b1bc45a72a002f282785217662c2963af7ec5106d7be9161184836040518083815260200180602001828103825283818151815260200191508051906020019080838360005b8381101561135557808201518184015260208101905061133a565b50505050905090810190601f1680156113825780820380516001836020036101000a031916815260200191505b50935050505060405180910390a150505050565b60016113a13361187c565b101515156113ae57600080fd5b6113db600760009054906101000a900473ffffffffffffffffffffffffffffffffffffffff166001610b15565b15156113e657600080fd5b6008600081548092919060010191905055507f95ed6440a45015182c8323afbabc53bfe7833bd0c596cd5c1cf88ce3b97e2c913360085483604051808473ffffffffffffffffffffffffffffffffffffffff1673ffffffffffffffffffffffffffffffffffffffff16815260200183815260200180602001828103825283818151815260200191508051906020019080838360005b8381101561149657808201518184015260208101905061147b565b50505050905090810190601f1680156114c35780820380516001836020036101000a031916815260200191505b5094505050505060405180910390a16060604051908101604052803373ffffffffffffffffffffffffffffffffffffffff168152602001828152602001602060405190810160405280600081525081525060096000600854815260200190815260200160002060008201518160000160006101000a81548173ffffffffffffffffffffffffffffffffffffffff021916908373ffffffffffffffffffffffffffffffffffffffff160217905550602082015181600101908051906020019061158c9291906120e6565b5060408201518160020190805190602001906115a99291906120e6565b5090505050565b600080600260003373ffffffffffffffffffffffffffffffffffffffff1673ffffffffffffffffffffffffffffffffffffffff16815260200190815260200160002060008573ffffffffffffffffffffffffffffffffffffffff1673ffffffffffffffffffffffffffffffffffffffff16815260200190815260200160002054905080831015156116c2576000600260003373ffffffffffffffffffffffffffffffffffffffff1673ffffffffffffffffffffffffffffffffffffffff16815260200190815260200160002060008673ffffffffffffffffffffffffffffffffffffffff1673ffffffffffffffffffffffffffffffffffffffff16815260200190815260200160002081905550611756565b6116d5838261203190919063ffffffff16565b600260003373ffffffffffffffffffffffffffffffffffffffff1673ffffffffffffffffffffffffffffffffffffffff16815260200190815260200160002060008673ffffffffffffffffffffffffffffffffffffffff1673ffffffffffffffffffffffffffffffffffffffff168152602001908152602001600020819055505b7f8c5be1e5ebec7d5bd14f71427d1e84f3dd0314c0f7b2291e5b200ac8c7c3b9253385600260003373ffffffffffffffffffffffffffffffffffffffff1673ffffffffffffffffffffffffffffffffffffffff16815260200190815260200160002060008873ffffffffffffffffffffffffffffffffffffffff1673ffffffffffffffffffffffffffffffffffffffff16815260200190815260200160002054604051808473ffffffffffffffffffffffffffffffffffffffff1673ffffffffffffffffffffffffffffffffffffffff1681526020018373ffffffffffffffffffffffffffffffffffffffff1673ffffffffffffffffffffffffffffffffffffffff168152602001828152602001935050505060405180910390a1600191505092915050565b60008060008373ffffffffffffffffffffffffffffffffffffffff1673ffffffffffffffffffffffffffffffffffffffff168152602001908152602001600020549050919050565b6060600960008381526020019081526020016000206001018054600181600116156101000203166002900480601f0160208091040260200160405190810160405280929190818152602001828054600181600116156101000203166002900480156119705780601f1061194557610100808354040283529160200191611970565b820191906000526020600020905b81548152906001019060200180831161195357829003601f168201915b50505050509050919050565b600760009054906101000a900473ffffffffffffffffffffffffffffffffffffffff1681565b60048054600181600116156101000203166002900480601f016020809104026020016040519081016040528092919081815260200182805460018160011615610100020316600290048015611a385780601f10611a0d57610100808354040283529160200191611a38565b820191906000526020600020905b815481529060010190602001808311611a1b57829003601f168201915b505050505081565b611a4c33826001610c4b565b5050565b60008060003373ffffffffffffffffffffffffffffffffffffffff1673ffffffffffffffffffffffffffffffffffffffff168152602001908152602001600020548211151515611a9f57600080fd5b600073ffffffffffffffffffffffffffffffffffffffff168373ffffffffffffffffffffffffffffffffffffffff1614151515611adb57600080fd5b611b2c826000803373ffffffffffffffffffffffffffffffffffffffff1673ffffffffffffffffffffffffffffffffffffffff1681526020019081526020016000205461203190919063ffffffff16565b6000803373ffffffffffffffffffffffffffffffffffffffff1673ffffffffffffffffffffffffffffffffffffffff16815260200190815260200160002081905550611bbf826000808673ffffffffffffffffffffffffffffffffffffffff1673ffffffffffffffffffffffffffffffffffffffff1681526020019081526020016000205461204a90919063ffffffff16565b6000808573ffffffffffffffffffffffffffffffffffffffff1673ffffffffffffffffffffffffffffffffffffffff168152602001908152602001600020819055507fddf252ad1be2c89b69c2b068fc378daa952ba7f163c4a11628f55a4df523b3ef338484604051808473ffffffffffffffffffffffffffffffffffffffff1673ffffffffffffffffffffffffffffffffffffffff1681526020018373ffffffffffffffffffffffffffffffffffffffff1673ffffffffffffffffffffffffffffffffffffffff168152602001828152602001935050505060405180910390a16001905092915050565b6060600960008381526020019081526020016000206002018054600181600116156101000203166002900480601f016020809104026020016040519081016040528092919081815260200182805460018160011615610100020316600290048015611d565780601f10611d2b57610100808354040283529160200191611d56565b820191906000526020600020905b815481529060010190602001808311611d3957829003601f168201915b50505050509050919050565b6000611df382600260003373ffffffffffffffffffffffffffffffffffffffff1673ffffffffffffffffffffffffffffffffffffffff16815260200190815260200160002060008673ffffffffffffffffffffffffffffffffffffffff1673ffffffffffffffffffffffffffffffffffffffff1681526020019081526020016000205461204a90919063ffffffff16565b600260003373ffffffffffffffffffffffffffffffffffffffff1673ffffffffffffffffffffffffffffffffffffffff16815260200190815260200160002060008573ffffffffffffffffffffffffffffffffffffffff1673ffffffffffffffffffffffffffffffffffffffff168152602001908152602001600020819055507f8c5be1e5ebec7d5bd14f71427d1e84f3dd0314c0f7b2291e5b200ac8c7c3b9253384600260003373ffffffffffffffffffffffffffffffffffffffff1673ffffffffffffffffffffffffffffffffffffffff16815260200190815260200160002060008773ffffffffffffffffffffffffffffffffffffffff1673ffffffffffffffffffffffffffffffffffffffff16815260200190815260200160002054604051808473ffffffffffffffffffffffffffffffffffffffff1673ffffffffffffffffffffffffffffffffffffffff1681526020018373ffffffffffffffffffffffffffffffffffffffff1673ffffffffffffffffffffffffffffffffffffffff168152602001828152602001935050505060405180910390a16001905092915050565b6000611fa38261187c565b9050919050565b6000600260008473ffffffffffffffffffffffffffffffffffffffff1673ffffffffffffffffffffffffffffffffffffffff16815260200190815260200160002060008373ffffffffffffffffffffffffffffffffffffffff1673ffffffffffffffffffffffffffffffffffffffff16815260200190815260200160002054905092915050565b600082821115151561203f57fe5b818303905092915050565b6000818301905082811015151561205d57fe5b80905092915050565b828054600181600116156101000203166002900490600052602060002090601f016020900481019282601f106120a757805160ff19168380011785556120d5565b828001600101855582156120d5579182015b828111156120d45782518255916020019190600101906120b9565b5b5090506120e29190612166565b5090565b828054600181600116156101000203166002900490600052602060002090601f016020900481019282601f1061212757805160ff1916838001178555612155565b82800160010185558215612155579182015b82811115612154578251825591602001919060010190612139565b5b5090506121629190612166565b5090565b61218891905b8082111561218457600081600090555060010161216c565b5090565b905600a165627a7a72305820ca0ec46ec85f743b12ad8d164d0657cf531df9e97f2e7c10f4b7a222f521b3e80029",
  "source": "pragma solidity ^0.4.24;\n\nimport './QAToken.sol';\n\ncontract QAOracle is QAToken {\n  address public owner;\n  uint private _questionId;\n  mapping (uint => Question) public questions;\n\n  event QuestionAdded( address askerAddress, uint qId, string qText );\n  event QuestionAnswered( uint qId , string aText );\n\n  struct Question {\n    address qAddress;\n    string qText;\n    string answer;\n  }\n\n  constructor () public {\n    owner = msg.sender;\n    _questionId = 0;\n  }\n\n  modifier isOwner() {\n    require(msg.sender == owner);\n    _;\n  }\n\n  //TODO investigate just returning the tokenContract instance to work with\n  function sendTokens(address to, uint amt) public {\n    transfer(to, amt);\n  }\n\n  function askQuestion(string question) public payable {\n    require(balanceOf(msg.sender) >= 1);\n    require(approve(owner, 1));\n    _questionId++;\n    emit QuestionAdded( msg.sender, _questionId, question );\n    questions[_questionId] = Question(msg.sender, question, '');\n  }\n\n  function transferTo(address addr) {\n    transferFrom(msg.sender, addr, 1);\n  }\n\n  function getQuestionText(uint qId) public view returns (string) {\n    return questions[qId].qText;\n  }\n\n  function getQuestionAnswer(uint qId) public view returns (string) {\n    return questions[qId].answer;\n  }\n\n  function getAcctBalance(address addr) public view returns (uint256) {\n    return balanceOf(addr);\n  }\n\n  function answerQuestion(uint qId, address aAddr, string answer) public isOwner {\n    Question storage question = questions[qId];\n    require(bytes(question.answer).length == 0);\n    require(transferFrom(question.qAddress, owner, 1));\n    require(approve(aAddr, 1));\n    question.answer = answer;\n    emit QuestionAnswered( qId, answer );\n  }\n\n  /* function getTokenReward(uint qId) public {\n    Question storage question = questions[qId];\n    require (msg.sender == question.answerer);\n    require (transferFrom(owner, msg.sender, 1));\n  } */\n}\n",
  "sourcePath": "/Users/davidammons/Desktop/qASolidity/smartContracts/contracts/QAOracle.sol",
  "compiler": {
    "name": "solc",
    "version": "0.4.24+commit.e67f0147.Emscripten.clang"
  },
  "schemaVersion": "2.0.1",
  "updatedAt": "2018-10-14T02:31:09.835Z"
}